:100000000C944F030C9477030C9477030C947703B0
:100010000C9477030C9477030C9477030C94770378
:100020000C9477030C9477030C9477030C94770368
:100030000C9477030C9477030C9477030C94770358
:100040000C94480A0C9477030C9477030C94770370
:100050000C9477030C9477030C9477030C94770338
:100060000C9477030C94770307634236B79BD8A7A9
:100070001A39685618AEBAAB558C1D3CB7CC5763CD
:10008000BD6DEDFD753EF6177231BF000000803F7B
:1000900008000000BE922449123EABAAAA2ABECD97
:1000A000CCCC4C3E00000080BEABAAAAAA3E000009
:1000B0000000BF000000803F000000000008417801
:1000C000D3BB4387D1133D190E3CC3BD4282AD2B38
:1000D0003E68EC8276BED98FE1A93E4C80EFFFBE30
:1000E00001C4FF7F3F00000000000001020305077C
:1000F000090B0E1114181D22282E363D464F596447
:100100006F7C8997A6B6C7D9EBFF000102030405EF
:100110000608090A0B0D0E1012131517191B1D20C6
:100120002225272A2D3033373A3E4145494D525634
:100130005B5F64696E74797F858B91979DA4ABB288
:10014000B9C0C7CFD6DEE6EEF7FF00000000003EE4
:100150005B4F5B3E3E6B4F6B3E1C3E7C3E1C183C37
:100160007E3C181C577D571C1C5E7F5E1C00183C93
:100170001800FFE7C3E7FF0018241800FFE7DBE7DC
:10018000FF30483A060E2629792926407F050507C3
:10019000407F05253F5A3CE73C5A7F3E1C1C08081F
:1001A0001C1C3E7F14227F22145F5F005F5F0609E4
:1001B0007F017F006689956A606060606094A2FF3D
:1001C000A29408047E040810207E201008082A1C2F
:1001D00008081C2A08081E101010100C1E0C1E0CFB
:1001E00030383E3830060E3E0E060000000000009B
:1001F000005F00000007000700147F147F14242A0A
:100200007F2A1223130864623649562050000807DB
:100210000300001C2241000041221C002A1C7F1CFC
:100220002A08083E080800807030000808080808FE
:10023000000060600020100804023E5149453E0065
:10024000427F400072494949462141494D331814C3
:10025000127F1027454545393C4A49493141211112
:1002600009073649494936464949291E0000140004
:100270000000403400000008142241141414141427
:10028000004122140802015909063E415D594E7C85
:100290001211127C7F494949363E414141227F413A
:1002A00041413E7F494949417F090909013E414198
:1002B00051737F0808087F00417F41002040413F83
:1002C000017F081422417F404040407F021C027F92
:1002D0007F0408107F3E4141413E7F090909063EE7
:1002E0004151215E7F0919294626494949320301B6
:1002F0007F01033F4040403F1F2040201F3F4038C8
:10030000403F631408146303047804036159494DA2
:1003100043007F4141410204081020004141417FD8
:10032000040201020440404040400003070800204E
:10033000545478407F28444438384444442838444E
:1003400044287F385454541800087E090218A4A485
:100350009C787F0804047800447D40002040403DA4
:10036000007F1028440000417F40007C047804781E
:100370007C080404783844444438FC1824241818B1
:10038000242418FC7C08040408485454542404040D
:100390003F44243C4040207C1C2040201C3C4030FA
:1003A000403C44281028444C9090907C4464544C29
:1003B0004400083641000000770000004136080084
:1003C00002010204023C2623263C1EA1A161123A2E
:1003D0004040207A3854545559215555794122547A
:1003E000547842215554784020545579400C1E527F
:1003F0007212395555555939545454593955545424
:10040000580000457C410002457D420001457C408A
:100410007D1211127DF0282528F07C5455450020CE
:1004200054547C547C0A097F4932494949323A4440
:1004300044443A324A4848303A4141217A3A4240AB
:100440002078009DA0A07D3D4242423D3D4040407D
:100450003D3C24FF2424487E4943662B2FFC2F2B50
:10046000FF0929F620C0887E0903205454794100F1
:1004700000447D413048484A32384040227A007A70
:100480000A0A727D0D19317D2629292F282629294E
:10049000292630484D402038080808080808080870
:1004A000382F10C8ACBA2F102834FA00007B000097
:1004B00008142A142222142A14085500550055AA9B
:1004C00055AA55AAFF55FF55FF000000FF00101068
:1004D00010FF00141414FF001010FF00FF1010F0A4
:1004E00010F0141414FC001414F700FF0000FF00B7
:1004F000FF1414F404FC141417101F10101F101F05
:100500001414141F00101010F0000000001F101031
:1005100010101F10101010F010000000FF1010102D
:10052000101010101010FF10000000FF140000FF4A
:1005300000FF00001F10170000FC04F41414171033
:10054000171414F404F40000FF00F7141414141426
:100550001414F700F7141414171410101F101F149C
:100560001414F4141010F010F000001F101F0000FD
:10057000001F14000000FC140000F010F01010FF29
:1005800010FF141414FF141010101F00000000F0CE
:1005900010FFFFFFFFFFF0F0F0F0F0FFFFFF0000A3
:1005A000000000FFFF0F0F0F0F0F3844443844FCCA
:1005B0004A4A4A347E02020606027E027E026355E1
:1005C0004941633844443C04407E201E2006027E9C
:1005D000020299A5E7A5991C2A492A1C4C720172AE
:1005E0004C304A4D4D303048784830BC625A463D18
:1005F0003E494949007E0101017E2A2A2A2A2A44CD
:10060000445F444440514A444040444A5140000001
:10061000FF0103E080FF000008086B6B083612360C
:100620002436060F090F06000018180000001010ED
:10063000003040FF0101001F01011E00191D1712AB
:10064000003C3C3C3C0000000000000000070002B1
:100650000100000304060000000000000000010289
:100660000408102040800102040810200102040840
:10067000102004040404040404040202020202021E
:1006800003030303030300000000250028002B00E0
:1006900000000000240027002A007903AD03112484
:1006A0001FBECFEFD8E0DEBFCDBF12E0A0E0B1E0CB
:1006B000E2E8F6E202C005900D92A631B107D9F743
:1006C00012E0A6E1B2E001C01D92AA36B107E1F73F
:1006D00016E0CCE9D6E004C02297FE010E94D20EBB
:1006E000CA39D107C9F70E94B7030C9434130C948C
:1006F0000000EF920F9392E5E92E0CE026E048E02F
:1007000050E060E270E088E192E00E94E30540E0A2
:1007100060E08FEF0E941506909352028093510281
:1007200040E06FEF80E00E941506909354028093A2
:1007300053024FEF60E080E00E941506909356024E
:100740008093550288E192E00E94440A9093170238
:10075000809316020F91EF9008958AEE91E09093A6
:1007600019028093180280E392E00C9429064F92BC
:100770005F926F927F92AF92BF92CF92DF92EF9291
:10078000FF920F931F93CF93DF9302974CF0FB01DF
:10079000828193810E940D1090930701809306013E
:1007A0008091060190910701C1E0D0E0082E02C0BF
:1007B000CC0FDD1F0A94E2F721979F938F9381E17D
:1007C00091E09F938F930E943A100F900F900F909B
:1007D0000F9000E010E02E01662457FC6094762C08
:1007E00089ECA82E81E0B82E46C0B801882777FD95
:1007F0008095982F0E94540C6B017C01C301B201BB
:100800000E94540C9B01AC01C701B6010E94B90BB8
:1008100026E636E646E250E40E94430D20E030E052
:100820004FE753E40E94E00C20E030E040E05FE35B
:100830000E94550B0E94210C7F936F93BF92AF9241
:100840000E943A100F900F900F900F900C171D07F9
:1008500084F4C8018F7099270F9719F488E091E00C
:1008600002C08FE091E09F938F930E943A100F9007
:100870000F900F5F1F4FC017D1070CF0B6CF8DEC54
:1008800091E00E94511080E090E0DF91CF911F91A4
:100890000F91FF90EF90DF90CF90BF90AF907F903F
:1008A0006F905F904F9008950F931F93FC01EF2F6F
:1008B000FF27E695E695E695E651FF4F4491FC014A
:1008C00035E0F695E7953A95E1F7EF73FF27E65F98
:1008D000FE4F0491FC01EF71FF27E651FF4F849119
:1008E00010E020E030E0322F212F102F0027242BA2
:1008F000082BB801C9011F910F910895AF92BF92C3
:10090000CF92DF92EF92FF920F931F93CF93DF93DB
:10091000EC01CB0128AD222329F0CCA8DDA8EEA85C
:10092000FFA804C00E9454046B017C018E01085E84
:100930001F4FC8010E9463075C01C0E0D0E007C000
:10094000A7019601BE01C8010E9404072196CA159D
:10095000DB05B1F7DF91CF911F910F91FF90EF90E1
:10096000DF90CF90BF90AF9008955F926F927F928B
:100970008F929F92AF92BF92CF92DF92EF92FF92AF
:100980000F931F93CF93DF93EC017B018A016901E1
:1009900077FD09C157FD07C18885998568177907D3
:1009A0000CF001C18A859B85481759070CF0FBC0E4
:1009B0008D89823061F08330C9F08130F1F48C810F
:1009C0009D810197841B950B8B017C0116C08C8146
:1009D0009D8101979C01261B370B79018E819F8198
:1009E0000197AC01401B510B8A0107C08E819F818A
:1009F0000197861B970B7A018C01EAA9FBA9309716
:100A000039F0B801C70109958C01A12CB12CA8C0FF
:100A10009DA463E0862E892078A8772009F465C01C
:100A20005EA4A52CB12CC701B5010E94BC0EFB0130
:100A30006FA4262D30E0C801B9010E94BC0EAB01A5
:100A4000EA9DC001EB9D900DFA9D900D1124E81ACE
:100A5000F90A629FC001639F900D729F900D11244F
:100A6000081B190B95FE07C0872D90E001979C018C
:100A70002E1B3F0BF90194FE06C049A950E04150DE
:100A80005109461B570B96FC08C0872D90E0342F68
:100A9000252FAF01E32FF22F02C089A990E097FE26
:100AA00010C0E0FF0EC023E082269A012095309509
:100AB0003196E89FA001E99F500DF89F500D112439
:100AC00007C08E9F90018F9F300D9E9F300D112487
:100AD000240F351F659C30011124629E5001639ED6
:100AE000B00C729EB00C112402C0A12CB12CC80114
:100AF00081FE08C02EA530E021503109A9014E1910
:100B00005F097A0180FE05C08FA590E00197801BE8
:100B1000910B92FC08C02EA530E0582F492FC70139
:100B2000E52EF42E02C02FA530E093FE10C0E0FEAB
:100B30000EC08C01009510955FEFE51AF50AE29E54
:100B4000C001E39E900DF29E900D112407C02E9DD2
:100B500080012F9D100D3E9D100D1124080F191FAF
:100B600088AD882329F02CA93DA94EA95FA905C00D
:100B7000C6010E9454049B01AC01B501600F711FB6
:100B8000CE014896DF91CF911F910F91FF90EF908A
:100B9000DF90CF90BF90AF909F908F907F906F909D
:100BA0005F900C940407DF91CF911F910F91FF90FC
:100BB000EF90DF90CF90BF90AF909F908F907F90FD
:100BC0006F905F900895AF92BF92CF92DF92EF92B5
:100BD0000F931F93CF93DF93EC015B016A01122FF8
:100BE0000E94ED08AC9CB001AD9C700DBC9C700DDA
:100BF00011242E2D412FCE0148960E94DC068AEE4C
:100C000091E0998388830DA7AEA6CFA618AA19AA4A
:100C10001BAA1AAA18AEDF91CF911F910F91EF90E6
:100C2000DF90CF90BF90AF9008956C7F98E0699F60
:100C3000B0011124382F387F20E0622B732B50E055
:100C4000E3E055954795EA95E1F7642B752BCB01C9
:100C50000895CF93DF93EC0188859985009711F073
:100C60000E94710F8E8187FD05C060E0DF91CF91FA
:100C70000C94BC0ADF91CF910895EF92FF920F93ED
:100C80001F93CF93DF93EC017B01888599850097B3
:100C900011F00E94710F9D858A85981303C083E02F
:100CA00090E002C084E090E08E9D80018F9D100D49
:100CB0009E9D100D11241D830C83C8010E94D60E29
:100CC00099878887009741F0A80160E070E00E9452
:100CD0002B10FB82EA8204C01D821C821B821A82B6
:100CE000DF91CF911F910F91FF90EF900895FC013C
:100CF00041E095858285981340E0562F5295569590
:100D0000569553705587262F30E0C90174E09595AC
:100D100087957A95E1F783709927782F8287C901A3
:100D200095958795959587958370992783876370A7
:100D3000648781E0808380859185892B51F081E0F3
:100D4000571380E0841729F062817381CF010C94DE
:100D50003D0608951F93CF93DF93EC01162F8981F1
:100D6000882331F08E8187FD03C060E00E94BC0AB9
:100D70001E838981882341F061E0812F0E94BC0A93
:100D800060E0812F0E94F40A812F90E0FC01EE5870
:100D9000F94FE491F0E0EE0FFF1FEA57F94F25916C
:100DA00034912A8B3B8BFC01E25AF94F84918C8B56
:100DB000DF91CF911F910895EF92FF920F931F93B0
:100DC000CF93DF931F92CDB7DEB77C018B01FC017F
:100DD000118217821186108616861786108A118A4C
:100DE000622F49830E947706B801C7010E943D0621
:100DF0004981642FC7010F90DF91CF911F910F910F
:100E0000FF90EF900C94AA06FF920F931F93CF933D
:100E1000DF93DC01F52E1296CD91DC9113976C17C0
:100E20007D0708F04AC0032F17961C9117971123CE
:100E300061F0419FA0011124452F319FF001112441
:100E40000F2F219F90011124232F1D963C911D9758
:100E50001A965C911A9718968D919C911997FB019F
:100E6000351307C0EE0FFF1FE60FF71FE80FF91F3E
:100E700011C0EE0FFF1FEE0FFF1FE80FF91F5F2DD0
:100E8000EF01C30FD11D112321F0F19EC0011124E8
:100E9000592F58831A968C911A97EF01C80FD11DBC
:100EA00048831B968C911B97EF01C80FD11D0883B7
:100EB0001C968C91E80FF11D2083DF91CF911F913B
:100EC0000F91FF900895FC018281938108952F92E4
:100ED0003F924F925F926F927F928F929F92AF92CA
:100EE000BF92CF92DF92EF92FF920F931F93CF9317
:100EF000DF9300D000D0CDB7DEB74C017C836B838D
:100F00006A015901C8018701AC014C195D0957FFFD
:100F100003C051954195510995016B817C81261B38
:100F2000370B37FF03C031952195310922242394D3
:100F3000312C2417350714F0212C312C21143104C5
:100F400059F03A2D2B2D5C01832F922F3B812C8160
:100F5000DC82CB82C32ED22EAB81BC81AA16BB060B
:100F60005CF43C2D2D2D6C01832F922F3B812C8125
:100F7000BC82AB82A32EB22E2501EB81FC814E1ADE
:100F80005F0A3C016C187D0877FE03C07194619480
:100F90007108720157FE03C0FFEFEF1AFF0AF594C4
:100FA000E794C816D9062CF421E030E03A8329836F
:100FB00028C06FEF7FEF7A83698323C0D401ED915E
:100FC000FC910480F581E02D98012114310421F079
:100FD0004B815C81B60103C0A6016B817C81C40199
:100FE0000995E618F708F7FE06C0E981FA81CE0EEA
:100FF000DF1EE40CF51C2B813C812F5F3F4F3C83AF
:101000002B836B817C81A616B706C4F60F900F90D8
:101010000F900F90DF91CF911F910F91FF90EF9064
:10102000DF90CF90BF90AF909F908F907F906F9008
:101030005F904F903F902F9008956F927F928F9284
:101040009F92AF92BF92CF92DF92EF92FF920F9357
:101050001F93CF93DF93EC015B016A0139014801D3
:10106000E881F9810284F385E02D87010995E88103
:10107000F981A601480D591D415051090284F3859B
:10108000E02D9301B501CE010995E881F981008435
:10109000F185E02D9401A601B501CE010995E88105
:1010A000F981B501660D771D615071090084F185E4
:1010B000E02D9401A601CE010995DF91CF911F91FA
:1010C0000F91FF90EF90DF90CF90BF90AF909F90E7
:1010D0008F907F906F900895EF92FF920F931F93E0
:1010E000DC01ED91FC91240F351F21503109068060
:1010F000F781E02D780189019B0109951F910F91DE
:10110000FF90EF900895EF92FF920F931F93DC01F1
:10111000ED91FC91260F371F215031090680F78190
:10112000E02D78018A0109951F910F91FF90EF90B2
:1011300008956F927F928F929F92AF92BF92CF92BB
:10114000DF92EF92FF920F931F93CF93DF935C0197
:101150004A0169013801EB01C60ED71E0DC0D50149
:10116000ED91FC910084F185E02D87019301A401AC
:10117000BE01C50109952196CC15DD0584F3DF91EB
:10118000CF911F910F91FF90EF90DF90CF90BF9084
:10119000AF909F908F907F906F900895EF92FF9205
:1011A0000F931F93DC01ED91FC9111971A960D910D
:1011B0001C911B9718962D913C9119970684F785E1
:1011C000E02D7B0140E050E060E070E009951F9168
:1011D0000F91FF90EF9008950895FC011382128201
:1011E00082E092E091838083758364835783468392
:1011F0007187608753874287158A158614861786FC
:10120000168621E0248B8FEF9FEF938B828B918B3F
:10121000808B268B178A08952F923F924F925F9270
:101220006F927F928F929F92AF92BF92CF92DF92F6
:10123000EF92FF920F931F93CF93DF93CDB7DEB75B
:101240002E970FB6F894DEBF0FBECDBF9E878D8759
:101250003A011E830D83F886EF82DC0118968D918A
:101260009C911997681779070CF0A1C0FD01828540
:101270009385481759070CF09AC0CB01F6E0CF9E32
:10128000800D911D1124181619060CF090C0CA018A
:1012900038E0C39E800D911D1124181619060CF01C
:1012A00086C057968C91811103C0203B08F02F5FB8
:1012B000EC2DF0E0FA87E9875B017A8369831B8272
:1012C0005AE4852E51E0952E861A970AF5E02F9F55
:1012D000800C911C11242B81253029F0F401EA0D9A
:1012E000FB1DD49001C0D12C39813B878A818C872A
:1012F0001301230198E09C83D0FE13C0AD85BE8509
:10130000ED91FC91B1E0CB1206C00480F581E02D97
:101310002D813E8119C00684F785E02DED80FE8089
:101320001EC0EF81F8852D813E81E217F30709F198
:10133000AD85BE85ED91FC91B1E0CB120BC0048070
:10134000F581E02D2F813885A201B5018D859E851F
:1013500009950FC00684F785E02DEF80F8840C2DE9
:1013600010E02C2D30E0A1016B857C858D859E855C
:101370000995D694EC81E150EC8329853A85220EBB
:10138000331E3FEF431A530AE111B6CF8B818F5FB3
:101390008B83A981BA81E985FA85AE0FBF1FBA8315
:1013A000A983FFEFAF1ABF0A863009F094CF2E96BB
:1013B0000FB6F894DEBF0FBECDBFDF91CF911F9166
:1013C0000F91FF90EF90DF90CF90BF90AF909F90E4
:1013D0008F907F906F905F904F903F902F900895E7
:1013E000CF92EF92FF920F931F93CF93DF93EC0175
:1013F000262F6A3049F42C898E859F8538E0239FFB
:10140000800D911D112432C06D30A1F1EA88FB8856
:10141000088919894E855F856C857D85CC880E94F9
:101420000C092C89422F50E08C859D8536E0239F46
:10143000800D911D11249D878C872E892223D1F048
:101440006AEF64039001659F300D112468857985EA
:10145000260F371F281739076CF463E0440F551F18
:101460006A95E1F78E859F85840F951F9F878E87EC
:101470001D861C8681E090E0DF91CF911F910F9136
:10148000FF90EF90CF900895FC018085918508959D
:101490001F920F920FB60F9211242F933F938F93A9
:1014A0009F93AF93BF938091570290915802A09160
:1014B0005902B0915A0230915F02232F2D5F2D37D0
:1014C00020F40196A11DB11D05C0232F2A570296B5
:1014D000A11DB11D20935F02809357029093580283
:1014E000A0935902B0935A0280915B0290915C02E2
:1014F000A0915D02B0915E020196A11DB11D809385
:101500005B0290935C02A0935D02B0935E02BF9178
:10151000AF919F918F913F912F910F900FBE0F90A0
:101520001F901895833069F028F48130A1F0823043
:1015300011F514C08630B1F08730C1F08430D9F491
:1015400004C0809180008F7703C0809180008F7DE0
:1015500080938000089584B58F7702C084B58F7D15
:1015600084BD08958091B0008F7703C08091B00052
:101570008F7D8093B0000895CF93DF9390E0FC01BE
:10158000E25AF94F4491FC01EE58F94F84918823B7
:1015900041F190E0880F991FFC01E057F94F259128
:1015A0003491D9018A57994FFC0185919491C82FA4
:1015B000D92F9FB7F8948C91611106C04095842370
:1015C0008C938881842308C0623041F4242F2095B5
:1015D00082238C938881842B888302C0842B8C93F4
:1015E0009FBFDF91CF9108950F931F93CF93DF9308
:1015F0001F92CDB7DEB7282F30E0F901E65BF94F37
:101600008491F901E25AF94F1491F901EE58F94F1A
:1016100004910023D1F0882321F069830E94920A6B
:101620006981E02FF0E0EE0FFF1FEA57F94F859137
:101630009491DC019FB7F8948C91611103C01095CF
:10164000812301C0812B8C939FBF0F90DF91CF919D
:101650001F910F9108950895CF92DF92EF92FF921C
:101660000F931F93CF93DF936C01EB017A01E60E8A
:10167000F71E00E010E00BC06991D601ED91FC91DE
:101680000190F081E02DC6010995080F191FCE15B4
:10169000DF0591F7C801DF91CF911F910F91FF9066
:1016A000EF90DF90CF9008955058BB27AA270ED017
:1016B0004DC13ED130F043D120F031F49F3F11F4C1
:1016C0001EF433C10EF4E095E7FB29C1E92F4FD199
:1016D00080F3BA17620773078407950718F071F44F
:1016E0009EF567C10EF4E0950B2EBA2FA02D0B01CD
:1016F000B90190010C01CA01A0011124FF27591B57
:1017000099F0593F50F4503E68F11A16F040A22F5C
:10171000232F342F4427585FF3CF469537952795CD
:10172000A795F0405395C9F77EF41F16BA0B620BCC
:10173000730B840BBAF09150A1F0FF0FBB1F661F13
:10174000771F881FC2F70EC0BA0F621F731F841F56
:1017500048F4879577956795B795F7959E3F08F07C
:10176000B3CF9395880F08F09927EE0F979587953B
:1017700008950CD0EBC0E3D040F0DAD030F021F483
:101780005F3F19F0CCC0511115C1CFC0F0D098F314
:101790009923C9F35523B1F3951B550BBB27AA27F2
:1017A00062177307840738F09F5F5F4F220F331F64
:1017B000441FAA1FA9F333D00E2E3AF0E0E830D030
:1017C00091505040E695001CCAF729D0FE2F27D033
:1017D000660F771F881FBB1F261737074807AB0701
:1017E000B0E809F0BB0B802DBF01FF2793585F4F76
:1017F0002AF09E3F510568F092C0DCC05F3FECF3D9
:10180000983EDCF3869577956795B795F7959F5F3A
:10181000C9F7880F911D9695879597F90895E1E08E
:10182000660F771F881FBB1F621773078407BA07ED
:1018300020F0621B730B840BBA0BEE1F88F7E09548
:10184000089504D06894B111B5C0089598D088F077
:101850009F5790F0B92F9927B751A0F0D1F0660F9C
:10186000771F881F991F1AF0BA95C9F712C0B130B7
:1018700081F09FD0B1E008959CC0672F782F882712
:10188000B85F39F0B93FCCF3869577956795B395F6
:10189000D9F73EF490958095709561957F4F8F4F65
:1018A0009F4F0895E89409C097FB3EF4909580956A
:1018B000709561957F4F8F4F9F4F9923A9F0F92F16
:1018C00096E9BB279395F695879577956795B79594
:1018D000F111F8CFFAF4BB0F11F460FF1BC06F5F7A
:1018E0007F4F8F4F9F4F16C0882311F096E911C08C
:1018F000772321F09EE8872F762F05C0662371F0AD
:1019000096E8862F70E060E02AF09A95660F771FC0
:10191000881FDAF7880F9695879597F9089597F9B4
:101920009F6780E870E060E008959FEF80EC089585
:1019300000240A94161617061806090608950024AE
:101940000A9412161306140605060895092E039428
:10195000000C11F4882352F0BB0F40F4BF2B11F49C
:1019600060FF04C06F5F7F4F8F4F9F4F089557FDFB
:101970009058440F551F59F05F3F71F04795880FFD
:1019800097FB991F61F09F3F79F087950895121694
:1019900013061406551FF2CF4695F1DF08C0161640
:1019A00017061806991FF1CF8695710561050894F1
:1019B0000895E894BB2766277727CB0197F9089508
:1019C0000BD0C4CFB5DF28F0BADF18F0952309F0AB
:1019D000A6CFABCF1124EECFCADFA0F3959FD1F3F2
:1019E000950F50E0551F629FF001729FBB27F00DCD
:1019F000B11D639FAA27F00DB11DAA1F649F662722
:101A0000B00DA11D661F829F2227B00DA11D621F70
:101A1000739FB00DA11D621F839FA00D611D221F2A
:101A2000749F3327A00D611D231F849F600D211D0E
:101A3000822F762F6A2F11249F5750408AF0E1F0B1
:101A400088234AF0EE0FFF1FBB1F661F771F881FFA
:101A500091505040A9F79E3F510570F060CFAACF3A
:101A60005F3FECF3983EDCF3869577956795B795E5
:101A7000F795E7959F5FC1F7FE2B880F911D96950F
:101A8000879597F90895FA01EE0FFF1F309621050B
:101A9000310599F16115710561F48038BFE39B0749
:101AA00049F168949038810561F08038BFEF9B0759
:101AB00041F0992342F5FF3FE1053105210511F180
:101AC000E8940894E795D901AA2329F4AB2FBE2FF7
:101AD000F85FD0F310C0FF5F70F4A695E0F7F73918
:101AE00050F019F0FF3A38F49F779F930CD00F9085
:101AF00007FC905808953EF018CF60E070E080E851
:101B00009FE308954FE79F775F934F933F932F9302
:101B10009ED02F913F914F915F9152DF05C019F4F4
:101B20000EF0FDCE46CF01CF2ADFC8F39638C0F7BE
:101B300007F80F92E8942BE33AEA48EB5FE74EDFB1
:101B40000F920F920F924DB75EB70F92C0D0E8E69A
:101B5000F0E016D04F915F91EF91FF91E595EE1F68
:101B6000FF1F49F0FE57E0684427EE0F441FFA9527
:101B7000E1F74195550B32D00F9007FE26C008952E
:101B8000DF93CF931F930F93FF92EF92DF927B012E
:101B90008C01689405C0DA2EEF011EDFFE01E89487
:101BA000A5912591359145915591AEF3EF018EDDCB
:101BB000FE019701A801DA9479F7DF90EF90FF908A
:101BC0000F911F91CF91DF9108959B01AC0160E0CF
:101BD00070E080E89FE3CDCDA2CEACC0D0DEE8F3CC
:101BE0009923D9F3940F511DBBF39150504094F0B9
:101BF00059F0882332F0660F771F881F91505040AC
:101C0000C1F79E3F510544F7880F911D9695879522
:101C100097F908955F3FACF0983E9CF0BB278695FE
:101C200077956795B79508F4B1609395C1F7BB0FA9
:101C300058F711F460FFE8CF6F5F7F4F8F4F9F4FD2
:101C4000E3CFB8CE0EF076C070CE689468CE97DE43
:101C5000C8F39923D1F3C6F3DF93CF931F930F9368
:101C6000FF92C92FDD2788232AF02197660F771F5F
:101C7000881FDAF720E030E040E85FEB9FE3883927
:101C800020F0803E30F021968F770FDDE0E9F0E024
:101C900003C00BDDEDEBF0E073DF8B01BE01EC0167
:101CA000FB2E6F5771097595771F880B990BFCDD1B
:101CB00028E132E741E35FE38FDEAF2D9801AE010B
:101CC000FF900F911F91CF91DF9100DD3FCEFA0180
:101CD000DC01AA0FBB1F9B01AC01BF5728F42227D0
:101CE0003327442750781FC0B75188F4AB2F002406
:101CF000469537952795011CA395D2F3002069F0EE
:101D0000220F331F441FB395DAF30DD0CDCC6130D1
:101D10007105A0E88A07B94630F49B01AC0166273B
:101D2000772788279078309621F02083318342836B
:101D3000538308959F3F31F0915020F48795779514
:101D40006795B795880F911D9695879597F9089592
:101D5000AA1BBB1B51E107C0AA1FBB1FA617B707D1
:101D600010F0A61BB70B881F991F5A95A9F78095ED
:101D70009095BC01CD01089597FB072E16F40094B1
:101D800007D077FD09D00E94A80E07FC05D03EF4CD
:101D9000909581959F4F0895709561957F4F089517
:101DA000EE0FFF1F0590F491E02D09940F931F9300
:101DB000CF93DF938230910510F482E090E0E091C0
:101DC0006202F091630220E030E0C0E0D0E023C086
:101DD0004081518148175907A8F04817590761F405
:101DE00082819381209719F09B838A832EC09093E0
:101DF00063028093620229C02115310529F0421740
:101E0000530710F0A90102C0BE01DF010281138156
:101E1000EF019A01F8013097D9F62115310509F142
:101E2000281B390B2430310590F412968D919C912A
:101E300013976115710521F0FB019383828304C020
:101E40009093630280936202FD01329644C0FD01CB
:101E5000E20FF31F81939193225031092D933C930C
:101E60003AC02091600230916102232B41F420910D
:101E700002013091030130936102209360022091AE
:101E80000001309101012115310541F42DB73EB714
:101E90004091040150910501241B350BE091600233
:101EA000F0916102E217F307A0F42E1B3F0B2817F5
:101EB000390778F0AC014E5F5F4F2417350748F0C3
:101EC0004E0F5F1F50936102409360028193919384
:101ED00002C0E0E0F0E0CF01DF91CF911F910F91C0
:101EE0000895EF92FF920F931F93CF93DF93009784
:101EF00009F48EC0DC01129713961C921E92129761
:101F0000E0906202F0906302E114F10489F42D91F3
:101F10003C911197280F391F8091600290916102C6
:101F20008217930789F5B0936102A093600270C095
:101F3000E70120E030E001C0EA01CA17DB0738F40E
:101F40004A815B819E0141155105B1F722C0AC0168
:101F500042505109FA01D383C28300811181BC012F
:101F6000600F711F6C177D0761F468817981600FC4
:101F7000711F6E5F7F4F718360836A817B81738382
:101F800062832115310529F4B0936302A0936202A4
:101F90003FC0F901B383A283E90149915991C40F6C
:101FA000D51FAC17BD0771F4DC019E918E91840F93
:101FB000951F02969183808312968D919C91139721
:101FC00093838283A0E0B0E002C0D7017C01F701D7
:101FD000828193810097C9F7C701029620813181E0
:101FE000820F931F209160023091610228173907F8
:101FF00079F4109729F4109263021092620204C0DF
:1020000013961C921E921297F0926102E092600267
:10201000CDB7DEB7E6E00C942513FC01882799279D
:10202000E89421912032E9F3293010F02E30C8F3E2
:102030002B3241F02D3239F4689404C00E943210E2
:10204000820F911D219120532A30C0F31EF49095E8
:1020500081959F4F0895DC0101C06D934150504020
:10206000E0F708957AE0979F902D879F802D910D3E
:1020700011240895A2E0B0E0E0E4F0E10C940D1327
:10208000FE01379661917191FA83E983AF018091E6
:102090006602909167020E9480102296E2E00C9402
:1020A00029130F931F93CF93DF938C01E091660266
:1020B000F0916702838181FF1BC0C0E0D0E005C0C2
:1020C0000995892B11F0CFEFDFEFF80181918F0196
:1020D0006091660270916702DB011896ED91FC91A8
:1020E00019978111EDCF8AE00995892B09F402C077
:1020F000CFEFDFEFCE01DF91CF911F910F910895C8
:10210000ACE0B0E0E6E8F0E10C94FD127C016B017C
:102110008A01FC0117821682838181FFC7C188244E
:102120008394912C8C0E9D1EF7019381F60193FDF3
:10213000859193FF81916F01882309F4B3C18532A2
:1021400039F493FD859193FF81916F01853229F4D4
:10215000B70190E00E947312E7CF712C312C20E080
:102160002032A8F48B3261F028F4803251F08332AF
:1021700071F40BC08D3239F0803349F4216028C0EE
:102180002260246025C0286023C0206121C027FD73
:1021900027C0382F30533A3078F426FF06C0FAE0D3
:1021A0007F9E300D1124732E13C08AE0389E300DAF
:1021B0001124332E20620CC08E3221F426FD72C110
:1021C000206406C08C3611F4206802C0883641F4C1
:1021D000F60193FD859193FF81916F018111C0CF2D
:1021E000982F9554933018F09052933028F40C5F48
:1021F0001F4FFFE3F9830DC0833631F0833771F051
:10220000833509F05EC023C0F801808189830E5FA9
:102210001F4F66246394712C540115C02801F2E00D
:102220004F0E511CF801A080B18026FF03C0672D1E
:1022300070E002C06FEF7FEFC5012C870E9468122B
:102240003C0182012C856FE7262E222218C028012E
:10225000F2E04F0E511CF801A080B18026FF03C0B0
:10226000672D70E002C06FEF7FEFC5012C870E94E1
:102270005D123C012C8550E8252E222A820123FC88
:102280001CC006C0B70180E290E00E9473123A942D
:10229000832D90E068167906A8F30FC0F50127FC9E
:1022A000859127FE81915F01B70190E00E94731232
:1022B00031103A94F1E06F1A71086114710471F7EA
:1022C000EEC0843611F0893641F5F80127FF07C0CA
:1022D00060817181828193810C5F1F4F08C0608192
:1022E0007181882777FD8095982F0E5F1F4F4FE6ED
:1022F000642E622297FF09C0909580957095619534
:102300007F4F8F4F9F4FF0E86F2A2AE030E0A40103
:102310000E949F12A82EA81844C0853731F43FEEC2
:10232000B32EB2222AE030E024C099EFB92EB222B7
:102330008F36B9F020F4883509F0B4C00DC080376D
:1023400021F0883709F0AEC002C020E1B22AB4FE05
:102350000BC084E0B82A08C024FF09C0E6E0BE2A0A
:1023600006C028E030E005C020E130E002C020E1F6
:1023700032E0F801B7FE07C06081718182819381EC
:102380000C5F1F4F06C06081718180E090E00E5F9E
:102390001F4FA4010E949F12A82EA8188FE7682E35
:1023A0006B2066FE0BC0362D3E7FA71450F464FEF2
:1023B0000AC062FC08C0362D3E7E05C0BA2C362D00
:1023C00003C0BA2C01C0B72C34FF0DC0FE01EA0DCA
:1023D000F11D8081803311F4397E09C032FF06C0BF
:1023E000B394B39404C0832F867809F0B39433FD7B
:1023F00014C030FF0FC07A2CB31460F4730C7B1838
:10240000B32C08C0B70180E290E03C870E947312B1
:10241000B3943C85B314B0F304C0B31410F43B1868
:1024200001C0312C34FF12C0B70180E390E03C873B
:102430000E9473123C8532FF1EC031FF03C088E545
:1024400090E002C088E790E0B7010CC0832F867847
:1024500091F031FD02C080E201C08BE237FD8DE2D8
:10246000B70190E00E94731206C0B70180E390E0CC
:102470000E9473127A94A714C0F3AA94F401EA0D8F
:10248000F11DB701808190E00E947312A110F5CF79
:1024900006C0B70180E290E00E9473123A943110B6
:1024A000F8CF42CEF7012681378102C02FEF3FEFF0
:1024B000C9012C96E2E10C941913FC0105906150BE
:1024C00070400110D8F7809590958E0F9F1F08954A
:1024D000FC016150704001900110D8F780959095F3
:1024E0008E0F9F1F08950F931F93CF93DF938C013F
:1024F000EB018B8181FD03C00FEF1FEF1AC082FF3C
:102500000DC02E813F818C819D812817390764F48D
:10251000E881F9810193F983E88306C0E885F985AC
:10252000802F0995892B41F78E819F8101969F838A
:102530008E83C801DF91CF911F910F910895FA0109
:10254000AA27283051F1203181F1E8946F936E7FF2
:102550006E5F7F4F8F4F9F4FAF4FB1E03ED0B4E0E3
:102560003CD0670F781F891F9A1FA11D680F791F24
:102570008A1F911DA11D6A0F711D811D911DA11D35
:1025800020D009F468943F912AE0269F1124301945
:10259000305D3193DEF6CF010895462F4770405DE0
:1025A0004193B3E00FD0C9F7F6CF462F4F70405D8F
:1025B0004A3318F0495D31FD4052419302D0A9F7EA
:1025C000EACFB4E0A6959795879577956795BA95E4
:1025D000C9F700976105710508959B01AC010A2EAA
:1025E00006945795479537952795BA95C9F7620F81
:1025F000731F841F951FA01D08952F923F924F9225
:102600005F926F927F928F929F92AF92BF92CF9282
:10261000DF92EF92FF920F931F93CF93DF93CDB78B
:10262000DEB7CA1BDB0B0FB6F894DEBF0FBECDBF03
:1026300009942A88398848885F846E847D848C84D4
:102640009B84AA84B984C884DF80EE80FD800C81DD
:102650001B81AA81B981CE0FD11D0FB6F894DEBFC0
:102660000FBECDBFED01089516E0CCE9D6E004C061
:10267000FE010E94D20E2296CE39D107C9F7F894F6
:02268000FFCF8A
:1026820000006A02200005002C0A20202020002CD5
:10269200002369666E646566205F47414D4D415F68
:1026A200485F0A23646566696E65205F47414D4D48
:1026B200415F485F0A0A236966646566205F5F417D
:1026C20056520A2023696E636C756465203C6176FC
:1026D200722F70676D73706163652E683E0A2365A1
:1026E2006C73650A202369666E6465662050524FDA
:1026F200474D454D0A202023646566696E6520506A
:10270200524F474D454D0A2023656E6469660A2380
:10271200656E6469660A0A73746174696320636F23
:102722006E73742075696E74385F742050524F470F
:102732004D454D0A202067616D6D6125645B5D200A
:102742003D207B0A2020202000253364000A7D3BA7
:102752000A0A23656E646966202F2F205F47414D68
:102762004D415F485F0000000000F0092C0BB504EA
:1027720067076C0883081D0899087E04EC080000AE
:102782000000F0092C0B2B0B67076C0883081D084F
:062792009908CE08EC08D6
:00000001FF
